:1000000084C10000B3C10000B1C10000AFC1000055
:10001000ADC10000ABC10000A9C10000A7C1000034
:10002000A5C10000A3C10000A1C100009FC1000044
:100030009DC100009BC1000099C1000097C1000054
:1000400095C1000093C1000091C100008FC1000064
:100050008DC100008BC1000089C100000C9496285E
:1000600085C100000C94662B0C949C2B7FC1000072
:100070007DC100007BC1000079C1000077C1000094
:1000800075C1000073C1000071C100006FC10000A4
:100090000C94F22B0C94282C69C10000C2C3000000
:1000A00065C1000063C1000061C100005FC10000C4
:1000B0005DC100005BC1000059C1000057C10000D4
:1000C00055C1000053C100000C9461190C947E2CA2
:1000D0000C94B42C4BC100000C940A2D0C94402DB0
:1000E00045C10000084AD73B3BCE016E84BCBFFD32
:1000F000C12F3D6C74319ABD56833DDA3D00C77FF8
:1001000011BED9E4BB4C3E916BAAAABE0000008090
:100110003F00001D3A2774694E53E8F5D2CF9C8109
:10012000A6BBCDD0F7EAB9A4839E25381F02514C57
:100130006B76879ABDA0F3EEC9D46F7255481B0643
:10014000213C4A57706D3E230419A2BF9885D6CB37
:10015000ECF1130E2934677A5D40FBE6C1DC8F9227
:10016000B5A8DEC3E4F9AAB7908D362B0C11425F17
:1001700078659489AEB3E0FDDAC77C61465B08150B
:10018000322F5944637E2D30170AB1AC8B96C5D8F7
:10019000FFE2263B1C01524F6875CED3F4E9BAA7A3
:1001A000809DEBF6D1CC9F82A5B8031E3924776AD7
:1001B0004D50A1BC9B86D5C8EFF24954736E3D20CB
:1001C000071A6C71564B1805223F8499BEA3F0EDB7
:1001D000CAD735280F12415C7B66DDC0E7FAA9B4A7
:1001E000938EF8E5C2DF8C91B6AB100D2A37647997
:1001F0005E43B2AF8895C6DBFCE15A47607D2E3383
:1002000014097F6245580B16312C978AADB0E3FE76
:10021000D9C400000A0B02090C0D0E0807030401E3
:1002200000000000000000000000000000000000CE
:10023000000000000000000000000000000012119B
:10024000100000000000000000000000000000009E
:10025000000000000000000001021020200808102B
:100260002040102040800201020108040201010226
:1002700004081020408080402010080402018004FF
:10028000020180402010080402010804020101025A
:100290000408102040800102040810204080050559
:1002A0000505070508080808020202020A0A0808EC
:1002B000040404040101010101010101030303031A
:1002C00003030303040707070C0C0C0C0C0C0C0CA9
:1002D0000202020206060606060606060B0B0B0BBA
:1002E0000B0B0B0B00002200250028002B002E001A
:1002F0003100340002010000050108010B01020376
:10030000B007C52B512CDD2C692D11241FBECFEF5A
:10031000D1E2DEBFCDBF00E00CBF14E0A0E0B2E050
:10032000EEEDFEE500E00BBF02C007900D92A0319C
:10033000B107D9F729E0A0E1B4E001C01D92A934CA
:10034000B207E1F711E0C5E8D1E000E006C021976F
:100350000109802FFE010E94F92DCF37D10780E0DF
:100360000807A9F70E9485250C946D2F49CE90E0CF
:1003700080E008958091440490914504891B990B75
:10038000089590914504809144042FEF3FEF981712
:1003900048F4E92FF0E0EA5BFB4F208130E09F5FFB
:1003A00090934504C9010895E09145048091440467
:1003B000E81730F4F0E0EA5BFB4F808190E00895AD
:1003C0008FEF9FEF08950895CF93DF93EC01E091B5
:1003D0001C04F0911D043097F1F090914504809138
:1003E00044049817C0F090E0292F30E02617370713
:1003F00054F4DE01A20FB31F4C912A5B3B4FD9018D
:100400004C939F5FF1CF1092450460934404CB015D
:10041000DF91CF911994DF91CF910895E0911E045F
:10042000F0911F04309729F01092220410922104B9
:1004300019940895CF93DF931F92CDB7DEB76983E8
:10044000209120042223F9F020912104203258F039
:1004500021E030E0FC013383228390E080E00F90C4
:10046000DF91CF91089580912204E82FF0E0ED5DB7
:10047000FB4F998190838F5F8093220480932104A6
:1004800081E090E0ECCF61E0CE01019689D1F8CF18
:10049000CF92DF92EF92FF920F931F93CF93DF9350
:1004A0007C01CB018A0120912004222389F0EB01F9
:1004B0006B01C40ED51ECC15DD0561F06991D70125
:1004C000ED91FC910190F081E02DC7011995F3CFDA
:1004D000642F66D1C801DF91CF911F910F91FF90DA
:1004E000EF90DF90CF90089510924504109244044D
:1004F000109222041092210496D08EE092E07CD1DA
:1005000084EE91E074C181E0809320046093430401
:10051000109222041092210408950F93062F21E0D7
:100520004091210463E274E080914304E2D0109290
:10053000220410922104109220040F9108954F92EA
:100540005F926F927F92AF92BF92CF92EF92FF92A3
:100550000F931F93CF93DF935C01F62ED42F2801C6
:100560003901EE2009F1CFDFCE2DC43008F0C3E011
:10057000C150B8F028E0C29FC0011124A30192012C
:1005800004C056954795379527958A95D2F7B901B6
:10059000D501ED91FC910190F081E02DC5011995F7
:1005A000E7CF60E0C501B9DF4D2FD13208F040E25E
:1005B0002C2D66E474E08F2D54D010924504809366
:1005C0004404DF91CF911F910F91FF90EF90CF9056
:1005D000BF90AF907F906F905F904F900895CF92B3
:1005E000EF920F931F93C22EE12C00E010E09801D0
:1005F000A6DF1F910F91EF90CF90089521E0EFCFEC
:1006000061E08BCFE0E1F4E01382128288EE93E0A8
:10061000A0E0B0E084839583A683B78380ED92E069
:100620009183808308951092D30481E08093D10454
:100630001092D00461E084E10E940F2A61E085E11C
:100640000E940F2AE9EBF0E080818E7F8083808119
:100650008D7F808388E48093B80085E48093BC001C
:100660000895413208F043C09091D3049111FCCF1A
:1006700091E09093D3042093D1042FEF209366044C
:100680001092AB04240F2093AA049093D20490916B
:10069000D204880F892B8093D2048091D0048130BA
:1006A00009F51092D0048091D2048093BB00809110
:1006B000BC0083FDF8CF85EC8093BC008091D3040F
:1006C0008130E1F38091AB04841710F44091AB04C6
:1006D000ACEAB4E0962FFB018E2F891B841720F023
:1006E000842F089585EEE8CF8D918193F5CF40E07A
:1006F000F7CF0F93413208F04BC09091D304911182
:10070000FCCF92E09093D3040093D1049FEF909399
:1007100066041092AB044093AA04362FACEAB4E00E
:10072000FB019E2F931B941770F11092D2049091AD
:10073000D204880F892B8093D2048091D004813019
:1007400029F51092D0048091D2048093BB0080914F
:10075000BC0083FDF8CF85EC8093BC00222321F000
:100760008091D3048230D1F3809166048F3F91F061
:1007700080916604803281F080916604803371F04C
:1007800084E00F91089591919D93CBCF85EEE4CFB6
:1007900081E0F7CF80E0F5CF82E0F3CF83E0F1CFC7
:1007A00020918804260F3327331F21323105ECF4C2
:1007B0002091D304FC0190E080E0243069F082E0D5
:1007C0000895A09188042191AC0146575B4FA40F76
:1007D000B52FB11D2C930196861798F3809188044C
:1007E000680F6093880480E0089581E008959093F5
:1007F000CD048093CC0408959093CF048093CE04CD
:10080000089585ED8093BC008091BC0084FDFCCFF1
:100810001092D304089585EC8093BC001092D30409
:1008200008951F920F920FB60F9211240BB60F92DC
:100830002F933F934F935F936F937F938F939F93E8
:10084000AF93BF93EF93FF938091B900887F803679
:1008500009F44CC008F03FC0883209F4A8C028F55C
:10086000803109F49CC0C8F4882309F4F8C08830AA
:1008700009F495C0FF91EF91BF91AF919F918F9136
:100880007F916F915F914F913F912F910F900BBE90
:100890000F900FBE0F901F901895883109F487C0F4
:1008A000803241F78093660414C0803409F49CC000
:1008B00040F48033B9F38833E9F680936604ABDF04
:1008C000D9CF803509F484C0883509F495C08834BF
:1008D00089F697DFCFCF883909F48CC038F588378F
:1008E00029F050F4883611F0803721F683E08093A8
:1008F000D3041092670457C0883809F47BC080394C
:1009000019F0803809F0B6CF80916704803208F082
:1009100071C0E091670481E08E0F8093670480913D
:10092000BB00F0E0E859FB4F80833DC0803B39F0CD
:10093000E0F4803A09F479C0883A09F09BCF84E06A
:100940008093D3041092890410928804E091CE041D
:10095000F091CF0419958091880481110FC081E036
:100960008093880410928A0409C0803C09F475C001
:10097000883C09F472C0883B09F07CCFE09189047F
:1009800081E08E0F80938904F0E0E657FB4F808171
:100990008093BB00909189048091880429C0809144
:1009A000D2048093BB0085EC8093BC0063CF909110
:1009B000AB048091AA04981758F5E091AB0481E04C
:1009C0008E0F8093AB04F0E0E455FB4F8081E9CFBC
:1009D000E091AB0481E08E0F8093AB048091BB006B
:1009E000F0E0E455FB4F80839091AB048091AA0422
:1009F0009817C8F285E8D8CFE091AB0481E08E0F5C
:100A00008093AB048091BB00F0E0E455FB4F808302
:100A10008091D10481115DCF81E08093D00484EA7C
:100A20008093BC001092D30425CFF5DE809167043B
:100A3000803230F4E0916704F0E0E859FB4F108217
:100A40006091670470E0E091CC04F091CD0488E6F9
:100A500094E01995109267040DCF85ECE1CF1092C8
:100A6000660437CFFF920F931F93CF93DF93C62F68
:100A7000042FF22E132F682F80E194E044DD6C2FB9
:100A800080E194E0D7DCCF2DD12F0C0F1D2F111D4D
:100A9000C017D10729F0699180E194E0CBDCF8CF51
:100AA00080E194E0ADDD91E0811190E0892FDF914C
:100AB000CF911F910F91FF900895CF93DF931F92D5
:100AC000CDB7DEB749839E012F5F3F4F41E0CADFBC
:100AD0000F90DF91CF9108952F923F924F925F92A6
:100AE0006F927F928F929F92AF92BF92CF92DF923E
:100AF000EF92FF920F931F93CF93DF9300D0CDB768
:100B0000DEB7E82E69834B8369010E94E0284B0120
:100B10005C01F12C1A822B81222E312C2801712CA0
:100B2000612C8B81F81608F044C06E2D80E194E0B2
:100B3000EADC698180E194E07DDC80E194E060DDC5
:100B40006E2D80E194E0DFDCA1014F1951094132A3
:100B5000510514F040E250E06E2D80E194E04EDD4E
:100B600080E194E007DC892BD9F00115110569F4C7
:100B700080E194E006DCF6019A81E90FF11D97FD12
:100B8000FA9580839F5F9A83EBCF0E94E0286819D3
:100B900079098A099B09641575058605970540F34F
:100BA00080E194E02DDD8B81813208F080E2F80E47
:100BB000B8CF01151105C1F00E94E0286819790924
:100BC0008A099B0930E020E06017710782079307CC
:100BD00058F02A81822F220F990B2B812817190692
:100BE00019F014F08FEF8A838A810F900F900F9085
:100BF000DF91CF911F910F91FF90EF90DF90CF90F9
:100C0000BF90AF909F908F907F906F905F904F902C
:100C10003F902F9008950F931F9389019A0141E00F
:100C20005BDF1F910F910895EF92FF920F931F9337
:100C3000CF93DF931F92CDB7DEB7182F062FE42E88
:100C4000F22E2091060230910702AE014F5F5F4FF6
:100C5000E2DF81E090E001C0880FEA94EAF7498181
:100C6000FF2069F0482B4983602F812F26DF0F90EA
:100C7000DF91CF911F910F91FF90EF900895809594
:100C80004823F1CFDF92EF92FF920F931F93CF9300
:100C9000DF931F92CDB7DEB7F82EE62E142FD22E9B
:100CA0002091060230910702AE014F5F5F4FB3DF24
:100CB000882351F1812F8D19990BAC014F5F5F4F44
:100CC00081E090E002C0880F991FDA94E2F7019763
:100CD000042E01C0880F0A94EAF701C0000F4A955C
:100CE000EAF7482F4095998149238023482B49836F
:100CF0006E2D8F2DE2DE0F90DF91CF911F910F911E
:100D0000FF90EF90DF90089580E0F5CF28E6FC019A
:100D1000208308950F93062F23E042E06AE1FC014F
:100D20008081B0DF0F9108950F93062F22E044E0F9
:100D30006BE1FC018081A6DF0F9108950F93062FD0
:100D400022E044E06CE1FC0180819CDF0F9108957A
:100D50000F931F93CF93DF93EC0100910602109144
:100D600007029C012F5F3F4F42E06BE38881B4DEB6
:100D700089819A81982789279827DF91CF911F91A0
:100D80000F9108950F931F93CF93DF93EC01009180
:100D90000602109107029C012F5F3F4F42E06DE376
:100DA00088819ADE89819A81982789279827DF91FF
:100DB000CF911F910F9108950F931F93CF93DF93BE
:100DC000EC0100910602109107029C012F5F3F4F3A
:100DD00042E06FE3888180DE89819A8198278927A4
:100DE0009827DF91CF911F910F9108950F931F9333
:100DF000CF93DF93EC0100910602109107029C0152
:100E00002F5F3F4F42E063E4888166DE89819A81EB
:100E1000982789279827DF91CF911F910F910895E7
:100E20000F931F93CF93DF93EC0100910602109173
:100E300007029C012F5F3F4F42E065E488814CDE52
:100E400089819A81982789279827DF91CF911F91CF
:100E50000F9108950F931F93CF93DF93EC010091AF
:100E60000602109107029C012F5F3F4F42E067E4AA
:100E7000888132DE89819A81982789279827DF9196
:100E8000CF911F910F910895262F46E06BE6FC014C
:100E90008081CACE0F93062F23E042E06BE6FC016F
:100EA0008081F0DE0F910895CF93DF93EC0161E034
:100EB000F1DF60E0CE0138DF60E0CE013FDF60E0CF
:100EC000CE01DF91CF91E0CF80E194E00DDB84EDA6
:100ED00094E0EADF20E045E06AE688E6A5DE21E06E
:100EE00041E067E388E6A0DE20E046E06BE688E6C6
:100EF0009BCECF93DF93EC0184ED94E029DF9983BF
:100F0000888384ED94E03EDF9B838A8384ED94E0C4
:100F100053DF9D838C83DF91CF910895CF93C82FAA
:100F200080E194E0E1DA6C2F84ED94E0F3DE84ED6F
:100F300094E0CF91B9CFCF93DF93EC0184ED94E0AF
:100F400055DF9983888384ED94E06ADF9B838A83ED
:100F500084ED94E07FDF9D838C83DF91CF910895B2
:100F600084ED94E0D3CE8F929F92AF92BF92CF92B6
:100F7000DF92EF92FF92CF93DF936B017C014901E7
:100F80005A0158D4882399F0609137097091380933
:100F90008091390990913A09DF91CF91FF90EF90BC
:100FA000DF90CF90BF90AF909F908F900895C50134
:100FB000B40140D48111E8CFC701B601F6D388232C
:100FC000D9F1C501B401F1D38823B1F120E030E0BB
:100FD000A901C701B6010E942328CFEFDFEF181641
:100FE00014F4C1E0D0E020E030E0A901C501B40173
:100FF0000E9423286FEF7FEF181614F461E070E071
:10100000072E000C880B990B0E944E276B017C0168
:10101000BE01DD0F880B990B0E944E27A701960198
:10102000DF91CF91FF90EF90DF90CF90BF90AF9086
:101030009F908F900C948F2620E030E0A901C5018D
:10104000B4010E94E226811116C020E030E0A9011F
:10105000C701B6010E942328181694F020E030E062
:10106000A901C701B6010E94E22687FD0EC060E01B
:1010700070E0CB0191CFA5019401C701B601D0CF9B
:101080006BED7FE089EC9FE387CF6BED7FE089EC30
:101090009FEB82CF4F925F926F927F928F929F923F
:1010A000AF92BF92CF92DF92EF92FF920F931F9376
:1010B000CF93DF9300D000D0CDB7DEB72091A4024C
:1010C0003091A5024091A6025091A7026091A8021A
:1010D0007091A9028091AA029091AB020E942E28E1
:1010E0002091AC023091AD024091AE025091AF021E
:1010F0000E942E2820915B0830915C0840915D0889
:1011000050915E080E941C262091B4023091B502D5
:101110004091B6025091B7020E942E286B017C01CB
:10112000209198023091990240919A0250919B022D
:1011300060E070E0CB010E941B2620919C02309160
:101140009D0240919E0250919F020E942E284B01C9
:101150005C01209190023091910240919202509155
:10116000930260E070E0CB010E941B262091940264
:101170003091950240919602509197020E942E283C
:10118000A5019401F0DE2091A0023091A1024091CE
:10119000A2025091A3020E942E28A70196010E944C
:1011A0001C2660933D0870933E0880933F089093FF
:1011B000400860936F087093700880937108909353
:1011C0007208E0912109F091220980819181A28128
:1011D000B3818093410890934208A0934308B09351
:1011E0004408CE010196A7DE8B819C8190934A082A
:1011F00080934908CE0101967CDEE980FA80F09266
:101200004C08E0924B086D817E8170934E0860938C
:101210004D08072E000C880B990B0E944E27209139
:10122000C0023091C1024091C2025091C3020E949B
:101230001B262091C4023091C5024091C6025091F4
:10124000C7020E942E284B015C01B701FF0C880BDE
:10125000990B0E944E272091B8023091B90240911B
:10126000BA025091BB020E941B262091BC02309111
:10127000BD024091BE025091BF020E942E28A501DE
:10128000940171DE60934508709346088093470887
:101290009093480880913D0890913E08A0913F08A6
:1012A000B091400880935B0890935C08A0935D0820
:1012B000B0935E0882E090E00E94EB18E091210973
:1012C000F0912209408151816281738190E080E038
:1012D0000E94E7186091160970911709809118090A
:1012E000909119090E944C2720E030E040E85FE42B
:1012F0000E942E286B017C016091120970911309E4
:1013000080911409909115090E944C279B01AC0112
:10131000C701B6010E941C262AE037ED43EA5CE3D0
:101320000E942E28AB01BC0181E090E00E94E718EA
:1013300080901A0990901B09A0901C09B0901D097B
:1013400020E030E040E85FEBC501B4010E94E226F6
:101350000091210910912209882319F1F801C08018
:10136000D180E280F380A7019601C501B4010E94FB
:101370001B264B015C0120E030E040E054E3C70154
:10138000B6010E942E289B01AC01C501B4010E9448
:101390002328181634F08EED92E090937408809311
:1013A000730880912009882331F08EED92E09093AC
:1013B000740880937308C0900609D0900709E090E4
:1013C0000809F0900909FFEFCF1ADF0AEF0AFF0AB8
:1013D000C0920609D0920709E0920809F092090923
:1013E000C114D104E104F10499F480910A099091A7
:1013F0000B09A0910C09B0910D090196A11DB11D19
:1014000080930A0990930B09A0930C09B0930D09DE
:1014100080900E0990900F09A0901009B0901109CA
:1014200060910A0970910B0980910C0990910D0946
:101430000E944C27A50194010E942E2820E030E054
:1014400040E85FE40E942E282B013C01C701B60151
:101450000E944C27A50194010E942E289B01AC01FB
:10146000C301B2010E941C26F8016083718382834C
:1014700093838091120990911309A0911409B0915E
:1014800015090196A11DB11D8093120990931309AE
:10149000A0931409B0931509892B8A2B8B2B99F4EF
:1014A0008091160990911709A0911809B091190916
:1014B0000196A11DB11D8093160990931709A09361
:1014C0001809B093190926960FB6F894DEBF0FBE1F
:1014D000CDBFDF91CF911F910F91FF90EF90DF90E3
:1014E000CF90BF90AF909F908F907F906F905F90C4
:1014F0004F900895CF92DF92EF92FF920F931F9338
:10150000CF93DF9384E090E019D1E3E7F8E088EB34
:10151000DF011D928A95E9F78EE199E09783868332
:10152000C1E2D9E0D093B408C093B3080EE019E04B
:10153000158B048BF093DE08E093DD08F583E483DC
:1015400021E030E0DC012D933C9382EF92E0938721
:10155000828723E239E03983288340E050E060EF5E
:1015600071E440931A0950931B0960931C0970930E
:101570001D094AE057ED63EA7CE3D8014D935D9382
:101580006D937C931397C4EFD8E088E89BE6A0E3C3
:10159000B2EE88839983AA83BB8384EA91E4ABE1AA
:1015A000BBEE8093F8089093F908A093FA08B093E3
:1015B000FB0886E09BEAA5E0B8EE8093FC089093D8
:1015C000FD08A093FE08B093FF088CE191E4A6E12A
:1015D000BDEF8093000990930109A0930209B09395
:1015E0000309ADEFB4E0B383A283E7EFF4E0119613
:1015F000FC93EE9384E093E09183808393838283D2
:101600009583848384E099E015969C938E93149738
:101610001396DC93CE93129717963C932E931697BE
:10162000EDE3F8E022E1DF011D922A95E9F7CFE42E
:10163000D8E020E2FE0111922A95E9F710926F0896
:10164000109270081092710810927208EDEEF4E09A
:101650002AE0DF011D922A95E9F7E3EEF4E0DC01D0
:10166000ED93FC9380E190E09183808380E792E0AA
:101670009383828380E592E09583848384E192E082
:101680009783868388E092E09187808711E01E8FA0
:10169000C12CD12C7601C394CF82D886E986FA86F4
:1016A00090E080E03BDC1B8718821F8FC982DA82C2
:1016B000EB82FC8209DC1D838091B0029091B10223
:1016C000A091B202B091B3028C879D87AE87BF878D
:1016D000DF91CF911F910F91FF90EF90DF90CF900E
:1016E000089580915508811103C081E080935508C9
:1016F00080914F08811103C081E080934F080895C5
:1017000060E070E080E89FE7089560E070E080E8C6
:101710009FE7089560E070E080E89FEF089560E043
:1017200070E080E89FEF089560E070E080EC9FEF4C
:10173000089560E070E080EC9FEF0895F5DF60931E
:101740003709709338098093390990933A09F1DF8A
:1017500060932B0970932C0980932D0990932E0987
:10176000CFDF6093330970933409809335099093E8
:101770003609CBDF60932F097093300980933109CC
:1017800090933209C7DF60933B0970933C098093C3
:101790003D0990933E09C3DF60933F097093400970
:1017A00080934109909342090895CF92DF92EF927E
:1017B000FF92CF936B017C01AC019B0160913309D7
:1017C0007091340980913509909136090E94E22682
:1017D000C1E0882371F0A701960160913B097091E7
:1017E0003C0980913D0990913E090E94E2268111B9
:1017F000C0E08C2FCF91FF90EF90DF90CF900895B5
:101800000F931F938B019C010027112720783F77AE
:101810000115110520483F4749F4AB01BC016F7722
:10182000772781E0452B462B472B09F480E01F9159
:101830000F910895E5CFEF92FF920F931F93CF93EF
:10184000DF93EA01F901DC011496ED90FC90159705
:1018500012964D915C9113974E0D5F1D2881398131
:1018600018960D911C9119970217130730F00D91DE
:101870001C911197012B09F441C08A01021B130B23
:10188000DC0118968D919C918E199F09800F911FF4
:1018900086179707DCF1C901860F971F84179507F4
:1018A00078F47183608333832283158214821782D4
:1018B000168288819981680F791F7983688316C0A1
:1018C0001183008333832283601B710B75836483D0
:1018D00090E080E01616170614F49E2D8F2D968347
:1018E0008783D701A60FB71FB983A88380E0DF9154
:1018F000CF911F910F91FF90EF90089518968D91C1
:101900009C91821B930B861797075CF681E0EFCFC3
:10191000CF92DF92EF92FF92CF93DF936B0184E43B
:10192000869FE001879FD00D1124C75FDA4F8AA9F7
:101930009BA9009721F00E94CB2E1BAA1AAA84E42F
:101940008C9DF0018D9DF00D1124E75FFA4F86A963
:1019500097A9009711F00E94CB2E84E48C9DF00192
:101960008D9DF00D1124E75FFA4F138A128A168AB3
:10197000178A108E118E128E138E148E158E168E5F
:10198000178E10A211A281E090E093A382A315A26A
:1019900014A216A217A210A611A613A612A615A687
:1019A00014A616A617A610AA11AA13AA12AA15AA57
:1019B00014AA17AA16AA11AE10AE12AE13AE14AE28
:1019C00015AEDF01DE961D921D921D921C9213979B
:1019D000EE5BFF4F11821082DF91CF91FF90EF906D
:1019E000DF90CF900895CF93DF93FB01DC016D91E1
:1019F0007C91DB011696CD91DC918081918123E071
:101A0000880F991F2A95E1F7AA81BB81A80FB91FFA
:101A10008D919C91119724853585220F331FEB0101
:101A20006A817B81EB01C20FD31F0990D881C02D41
:101A300014962D913C9161E070E0232B11F062E04F
:101A400070E0C69F9001C79F300DD69F300D1124C6
:101A5000A085B1852A9FB0012B9F700D3A9F700D14
:101A60001124A481B5812A9FF0012B9FF00D3A9F8C
:101A7000F00D11248E0F9F1FFA01918380837383D1
:101A80006283DF91CF9108952F923F924F925F92A0
:101A90006F927F928F929F92AF92BF92CF92DF927E
:101AA000EF92FF920F931F93CF93DF9300D000D05C
:101AB000CDB7DEB7DC011496ED91FC910190F08179
:101AC000E02D808591859A838983A281B381BC832F
:101AD000AB83FB0181909190A190B190C12CD12C4E
:101AE0007601C814D904EA04FB04CCF026960FB69C
:101AF000F894DEBF0FBECDBFDF91CF911F910F9144
:101B0000FF90EF90DF90CF90BF90AF909F908F901D
:101B10007F906F905F904F903F902F9008954480FA
:101B20005580668077804085518562857385CF01B9
:101B300040969E838D83A081B1819D0183E0220F19
:101B4000331F8A95E1F7A981BA8112968D919C91F4
:101B5000D901A80FB91F2D903C9011970484F585E9
:101B6000E02DEE0FFF1F8B819C81E80FF91F019084
:101B7000F081E02D14968D919C91892B41F581E0A7
:101B800090E0E89F9001E99F300DF89F300D1124FF
:101B9000249F8001259F100D349F100D1124249D3A
:101BA000C001259D900D349D900D1124A8016D81DB
:101BB0007E81820D931D0E94542FED81FE81E00FE6
:101BC000F11F9FEFC91AD90AE90AF90A8ACF82E000
:101BD00090E0D7CFCF93DF93DB01A853BD4F2C917B
:101BE000222369F024E4269FF001279FF00D1124A1
:101BF000E75FFA4FEF0119922A95E9F71C9224E466
:101C0000269FF001279FF00D1124E75FFA4F148201
:101C10001582168217821186108613861286118A03
:101C2000108A17861686DF91CF9172CE2F923F923F
:101C30004F925F926F927F928F929F92AF92BF92DC
:101C4000CF92DF92EF92FF920F931F93CF93DF9388
:101C500000D000D01F921F92CDB7DEB724E4269F9C
:101C6000F001279FF00D1124E75FFA4F04811581E1
:101C700026813781012B022B032B09F4B7C02A01DF
:101C80006B017C0110E000E0812C912C54013F019C
:101C90009F01285F3F4F3C832B83CF0104969E8397
:101CA0008D83AB81BC818D919C91ED81FE814081C2
:101CB00051816281738184169506A606B706E4F108
:101CC0000E94CB2ED3011A968D919C91892B09F0FD
:101CD0007EC084E48C9DD0018D9DB00D1124A75F42
:101CE000BA4FBC83AB8350968D919C910E94CB2EB2
:101CF000EB81FC81868597850E94CB2EC701B601BA
:101D000007DEC701B60128960FB6F894DEBF0FBEF6
:101D1000CDBFDF91CF911F910F91FF90EF90DF909A
:101D2000CF90BF90AF909F908F907F906F905F907B
:101D30004F903F902F904ECFFC01E00FF11F92810A
:101D40009983A381AA839F83A887312C212C2414F3
:101D5000350464F089819A810E94CB2EEFEF8E1AB0
:101D60009E0AAE0ABE0A0C5F1F4F9BCFAF81B8859B
:101D7000ED91FD91B887AF83309759F084819581BB
:101D80000E94CB2EEF81F8853297808191810E944D
:101D9000CB2EBFEF2B1A3B0ADACF800F911FFC012D
:101DA000848195810E94CB2E2B813C812F5F3F4FF8
:101DB0003C832B83025F1F4FF501808191812B8132
:101DC0003C81241535054CF30E94CB2E82CF10E0C8
:101DD00000E01C821B8224E42C9DC0012D9D900DEF
:101DE0001124DC01AD5EBA4F5D01E6CF28960FB637
:101DF000F894DEBF0FBECDBFDF91CF911F910F9141
:101E0000FF90EF90DF90CF90BF90AF909F908F901A
:101E10007F906F905F904F903F902F90089524E4B3
:101E2000269FF001279FF00D1124E75FFA4F82896A
:101E300093890497029758F485E090E0938B828B06
:101E40008FEF9FEFDC01828F938FA48FB58F089562
:101E50002F923F924F925F926F927F928F929F92BA
:101E6000AF92BF92CF92DF92EF92FF920F931F93A8
:101E7000CF93DF93CDB7DEB7AA970FB6F894DEBF46
:101E80000FBECDBF9AA389A37E8B6D8B1A01098BE0
:101E90001A8B2B8B3C8B84E429893A89829F6001C1
:101EA000839FD00C11248601075F1A4F89899A8974
:101EB000AB89BC89F80180839183A283B383AB0192
:101EC000BC01CD01B3DED601A35FBA4F84E0F101BE
:101ED00001900D928A95E1F7F4E02F0E311C64E039
:101EE00070E0D80114968D919C910E94152EF801F6
:101EF00091878087892B09F0F5C04D895E896989B2
:101F00007A898B899C8992DE81E0AA960FB6F89433
:101F1000DEBF0FBECDBFDF91CF911F910F91FF901C
:101F2000EF90DF90CF90BF90AF909F908F907F9079
:101F30006F905F904F903F902F900895A9A5BAA5FC
:101F40008D919C91E98DFA8DE80FF91FF88FEF8B39
:101F5000D1018D919C91880F991FA9A1BAA1ED91F2
:101F6000FC91E80FF91F80819181EF89F88D9183B1
:101F70008083D10114962D913D914D915C911797DD
:101F80002BA33CA34DA35EA362E070E08D899E89E4
:101F90000E94152EEF89F88D93838283892B09F493
:101FA000ACCFF8E02F0E311C412C512C32012BA16B
:101FB0003CA14DA15EA142165306640675069CF035
:101FC0002B8D3C8D4D8D5E8D2F5F3F4F4F4F5F4F63
:101FD0002B8F3C8F4D8F5E8F498D5A8D4C5F5F4F9D
:101FE0005A8F498F90C0610124E0C20ED11CD101EB
:101FF000ED90FC90EE0CFF1CEF89F88D82819381AF
:10200000E80EF91E68E070E081E090E00E94152E75
:102010008C01D7018D939C93892B09F46ECF84E0BA
:10202000F601D80101900D928A95E1F7B8E02B0EE8
:10203000311CF80180819181A281B38118161906A3
:102040001A061B06DCF464E070E00E94152ED8012D
:1020500015969C938E931497892B09F44ECFD12C0F
:10206000C12C812C912C5401F80180819181A28195
:10207000B38188169906AA06BB0634F0FFEF4F1A03
:102080005F0A6F0A7F0A93CFF801E480F580EC0CB9
:10209000FD1C80E1F101DE01119601900D928A95FF
:1020A000E1F7F0E12F0E311CA701BE016F5F7F4FFA
:1020B000A9A1BAA114968D919C9195DCF801868115
:1020C0009781D70112962D913C91820F931F978390
:1020D0008683BFEF8B1A9B0AAB0ABB0AE4E0CE0EE5
:1020E000D11CC2CF1A8E198E1B8E1C8E1D8E1E8E79
:1020F00018A30F8FA8014C5F5F4F58A74FA3C801CB
:1021000008969AA789A7EFA1F8A580819181A2815D
:10211000B3812B8D3C8D4D8D5E8D281739074A0775
:102120005B070CF40BCF6EE070E08D899E890E94F6
:10213000152EAF8DB8A11B969C938E931A97B12C38
:10214000A12CD12CC12CF12CE12C24E4E989FA89B1
:102150002E9FC0012F9F900D11249C012D5E3A4FA0
:10216000388F2F8B88248394912C4D895E89C416D7
:10217000D50654F184E4A989BA898A9F80018B9F8E
:10218000100D1124075F1A4FF80115861486C70138
:1021900033E0880F991F3A95E1F70E942F2ED8015E
:1021A00051969C938E935097892B09F4A6CEC70124
:1021B000880F991F0E942F2EF80197878687892BF9
:1021C00009F49BCE80E0A1CED1014D905D906D9041
:1021D0007D901D0177FC91CEEF89F88D00811181F2
:1021E0000A0D1B1DD80111969C928E924114510428
:1021F0006104710429F1C2010E942F2EF801958318
:102200008483892B09F479CEF80153824282848138
:10221000958197838683918780871386128681E0D4
:1022200090E045284628472811F490E080E0E80E29
:10223000F91EFFEFCF1ADF0A2EE0A20EB11C95CFD8
:1022400015961C921E921497DFCF2F923F924F92B9
:102250005F926F927F928F929F92AF92BF92CF9236
:10226000DF92EF92FF920F931F93CF93DF93CDB73F
:10227000DEB76A970FB6F894DEBF0FBECDBF9E8B58
:102280008D8B49015A0184E4829F7001839FF00C79
:1022900011249701275F3A4F6901FB0180819181E9
:1022A000F901958B848BD701A15EBA4FFB0134965F
:1022B00084E001900D928A95E1F7D701AD5DBA4FA8
:1022C000FB01389684E001900D928A95E1F7D701E1
:1022D000A95DBA4FFB013C9684E001900D928A956E
:1022E000E1F7D701A95CBA4FFB01709684E0019039
:1022F0000D928A95E1F78B010C5E1F4FF90186A5BF
:1023000097A5A0A9B1A918161906DCF5880F991F81
:10231000880F991F0E942F2EF60193AB82AB892B59
:1023200009F4D3C0312C212C412C512C32019601BF
:10233000225D3F4F388F2F8BC601C2969A8F898FAF
:10234000F496FC8BEB8BB301A2012FEF421A520AD9
:10235000620A720AEF89F88D80819181A281B3812E
:10236000481759076A077B070CF47BC0F60184A95C
:1023700095A90E942F2EF60197AB86AB892B09F405
:10238000A4C0F80180819181A281B38124E4289DB9
:10239000F001299DF00D1124E75FFA4FAC01BD015A
:1023A0004D7F21E030E0452B462B472B11F030E0EC
:1023B00020E033A322A324E4289DF001299DF00D01
:1023C0001124E75FFA4F0197A109B10921E030E03C
:1023D0000297A105B10510F030E020E035A324A359
:1023E000D701A15DBA4FF801349684E001900D92B7
:1023F0008A95E1F784E4889DF001899DF00D112410
:10240000E75FFA4F868D978DA0A1B1A1B7FF58C0A5
:10241000B095A095909581959F4FAF4FBF4F82AFDC
:1024200093AFA4AFB5AF168E178E10A211A280E0A5
:102430006A960FB6F894DEBF0FBECDBFDF91CF9185
:102440001F910F91FF90EF90DF90CF90BF90AF90D2
:102450009F908F907F906F905F904F903F902F90C4
:102460000895E98DFA8D808191819C01220D331DA3
:102470003A8B298B80E1F801DE01119601900D92D3
:102480008A95E1F7005F1F4F49895A89BE016F5F46
:102490007F4FED89FE8984819581A5DAEB89FC89DE
:1024A00080819181E989FA8922813381820F931F8A
:1024B000EB89FC8991838083F4E02F0E311C43CF9C
:1024C00012AE13AE14AE15AEB2CFC501B40120DA10
:1024D00081E0AECFCF92DF92EF92FF92CF93DF9366
:1024E0001092910524E4269FF001279FF00D1124FE
:1024F000E75FFA4F15A614A630E020E0D12CC12CDE
:10250000DF011A96C1E0D0E0C416D506F4F024E449
:10251000269FF001279FF00D1124E75FFA4F13A6C5
:1025200012A611AE10AEDF01DE961D921D921D9215
:102530001C92139782E090E0938B828BDF91CF9176
:10254000FF90EF90DF90CF900895ED91FC9111975F
:10255000E20FF31FE280F3801E141F0454F4E480A2
:10256000F580F782E682F186E08613861286D183B3
:10257000C083EFEFCE1ADE0A225F3F4FC5CF24E4BF
:10258000269FF001279FF00D1124E75FFA4F138A71
:10259000128A4CCB24E4269FF001279FF00D1124D2
:1025A000E75FFA4F8289938981309105C8F08530C1
:1025B000910518F0059769F008958FEF9FEFDC0102
:1025C000828F938FA48FB58F85E090E0938B828B61
:1025D00008958FEF9FEFDC01828F938FA48FB58FCB
:1025E000089524E4249FD001259FB00D1124A75FF6
:1025F000BA4F2EE0AC01249FC001259F900D1124FD
:102600001A96ED91FC91E80FF91F81E080939105F6
:102610008285938591878087408551852681378182
:1026200081E090E04217530711F090E080E0918341
:10263000808308952F923F924F925F926F927F9284
:102640008F929F92AF92BF92CF92DF92EF92FF92C2
:102650000F931F93CF93DF93CDB7DEB7C055D1094A
:102660000FB6F894DEBF0FBECDBF9EAF8DAF4BA7A8
:102670005CA76DA77EA76801790184E4809FF001C3
:10268000819FF00D1124E75FFA4F22853385239651
:102690003FAF2EAF239782899389029761F486A575
:1026A00097A5A0A9B1A9892B8A2B8B2BC9F584E00A
:1026B00090E0938B828B84E48C9DF0018D9DF00DD6
:1026C0001124E75FFA4F828993898230910509F0DE
:1026D00037C282AD93ADA4ADB5AD22242394312C85
:1026E000181619061A061B060CF42FC2C05BDF4F22
:1026F0000FB6F894DEBF0FBECDBFDF91CF911F9113
:102700000F91FF90EF90DF90CF90BF90AF909F9090
:102710008F907F906F905F904F903F902F90089593
:10272000848995894DAD5EAD8417950721F606A97C
:1027300017A918AE1FAA1BAA1CAA1DAA1EAA1F0110
:10274000CF018E9627969FAF8EAF2797DF01D29647
:102750002996BFAFAEAF2997F8962B96FFAFEEAF95
:102760002B9791012A5D3F4F2D963FAF2EAF2D97AE
:10277000A1014E5D5F4F2F965FAF4EAF2F970A9727
:1027800061969FAF8EAF61972796EEADFFAD27970D
:1027900080819181A281B3812BA93CA94DA95EA919
:1027A000281739074A075B0744F081E090E0D10120
:1027B000D9969C938E93D8977ECF2996AEADBFAD18
:1027C0002997ED91FC912FA938ADE20FF31F4281BB
:1027D00053815AAF49AF50815FAF818121968FAF4E
:1027E00021972B96AEADBFAD2B978D919C91892BE8
:1027F00021F12D96EEADFFAD2D9780809180A280C6
:10280000B3801AAB09AB5FA72196FFAD2197F8AB58
:1028100029AD3AAD369527953695279525963FAF44
:102820002EAF25971CAE1BAE2596AEADBFAD25973E
:10283000EBADFCADEA17FB070CF149AD5AAD6FAD3E
:1028400021967FAD2197C8010E94542F89AD9AAD82
:102850008C7F080F191F2BA93CA94DA95EA92F5FDA
:102860003F4F4F4F5F4F2BAB3CAB4DAB5EAB4FA9D8
:1028700058AD4C5F5F4F58AF4FAB86CF2F96AEAD84
:10288000BFAD2F978D919C91892B71F1EFA5F8A980
:102890004080518062807380A3019201C501B40120
:1028A0000E94E226181664F0A9A9BAA92D913D91BB
:1028B0004D915C91C501B4010E9423281816BCF10A
:1028C000A3019201C501B4010E94E22687FF0CC05A
:1028D000E9A9FAA92081318142815381C501B4015E
:1028E0000E94E226882319F16196AEADBFAD6197D3
:1028F0008D919C91892B09F445C0EFA5F8A94080E2
:10290000518062807380A3019201C501B4010E94CD
:10291000232818161CF5A9A9BAA92D913D914D910E
:102920005C91C501B4010E94E22618165CF184E4B2
:102930008C9DF0018D9DF00D1124E75FFA4F868D7F
:10294000978DA0A1B1A1892B8A2B8B2B69F183E0F4
:1029500090E0938B828B81E090E02CC0A3019201E8
:10296000C501B4010E94E22681110CC0E9A9FAA9AF
:102970002081318142815381C501B4010E94E22648
:1029800087FDD5CF2BAD3CAD2F5F3F4F3CAF2BAF7D
:1029900049A95AA94C5F5F4F5AAB49AB8FA598A97B
:1029A000049698AB8FA740CF84E090E0938B828B06
:1029B00086AD97AD93A782A77ECEEBADFCAD8081AF
:1029C0009181F401EE0FFF1FEE0FFF1FE80FF91FBB
:1029D000A081B1818C9181110AC0FFEF8F1A9F0AEB
:1029E000AF0ABF0A8DA29EA2AFA2B8A68FC1833044
:1029F000A1F30280F381E02D2FA938ADE20FF31F80
:102A0000808191819AAB89AB892B39F34F5F5F4FFE
:102A10006F4F7F4F49875A876B877C879E01235E64
:102A20003F4FAE01475D5F4F64E070E0C8010E9418
:102A30001B0C8111D0C18D819E81AF81B885049618
:102A4000A11DB11D8D839E83AF83B8874D8D5E8D93
:102A5000BE016B5D7F4F8F8D98A10E94542F8BA17B
:102A60009CA1009761F06D8D7E8DA5E2B0E0AC0F6A
:102A7000BD1F6A0F7B1F49A15AA10E94542F1CAA97
:102A80001BAA412C512C3201E9A9FAA9808191811C
:102A9000A281B381481659066A067B060CF09DCFC9
:102AA000E9A9FAA9848195812BA93CA9280F391F8E
:102AB00038AB2FA7D90112966D917C919E01235EB0
:102AC0003F4FAE01475D5F4FC8010E941B0C811153
:102AD00082C1EFA5F8A982819381092E000CAA0B6F
:102AE000BB0B4D815E816F817885840F951FA61F7A
:102AF000B71F8D839E83AF83B887608171814D8DB1
:102B00005E8D8F8D98A10E94542F8BA19CA1009760
:102B100061F0AFA5B8A96D917C912D8D3E8D620FAE
:102B2000731F49A15AA10E94542FBFEF4B1A5B0A91
:102B30006B0A7B0AEBA9FCA93496FCABEBABA4CFE8
:102B4000312C212C049709F0D1CD8EE0EDADFEADF6
:102B50008E9F80018F9F100D112423962EAD3FADC7
:102B60002397020F131FD80112964D915C91139772
:102B70004115510509F4BACD16968D919C919AA7ED
:102B800089A780E1FE013196DF011D928A95E9F760
:102B9000C98ADA8AEB8AFC8A2114310409F458C004
:102BA00084E48C9DF0018D9DF00D1124E75FFA4FB8
:102BB000DF01DE968D909D90AD90BC9082AD93AD7F
:102BC000A4ADB5AD88169906AA06BB0609F040C0AB
:102BD000F801848195810084F185E02D349624E00C
:102BE000DE01559601900D922A95E1F72D893E89D7
:102BF000285F3F4F3E8B2D8BD80118966D917C91AD
:102C00001997260F371F19963C932E9318971896ED
:102C10002D913C911997480F591F241B350B37FDF7
:102C200006C0820F931F19969C938E93189784E485
:102C30008C9DF0018D9DF00D1124E95BFA4FB1E000
:102C40008B1A9108A108B10880829182A282B38276
:102C50009E012B5E3F4FAE01475D5F4F64E170E028
:102C6000C8010E941B0C8111B6C08CE090E0A0E06E
:102C7000B0E08D839E83AF83B8879E01235E3F4F74
:102C8000AE01475D5F4F64E070E0C8010E941B0C1D
:102C90008111A1C080E190E0A0E0B0E08D839E832F
:102CA000AF83B8874D8D5E8DBE01655D7F4F8F8D83
:102CB00098A10E94542F8BA19CA1009761F06D8D6B
:102CC0007E8DEBE2F0E0EC0FFD1F6E0F7F1F49A140
:102CD0005AA10E94542F1DA21EA21FA218A62DADFC
:102CE0003EAD220F331F38AF2FAB24E42C9DC00123
:102CF0002D9D900D1124875F9A4FAC014C5F5F4F63
:102D00005AAF49AFDC011896BCAFABAF8DA09EA007
:102D1000AFA0B8A449855A856B857C85E9ADFAAD2D
:102D200080819181A281B38188169906AA06BB068B
:102D30000CF443CE452B462B472B09F4D7CC8AE124
:102D400090E0A0E0B0E089839A83AB83BC832DAD93
:102D50003EADC901330FAA0BBB0B8D879E87AF8792
:102D6000B88B4D895E89BE016F5F7F4F8F89988DCB
:102D70000E94542F8B8D9C8D009761F06D897E8908
:102D800041E050E04C0F5D1F640F751F498D5A8D57
:102D90000E94542F89A59AA5D80117969C938E93CB
:102DA000169711961C921E92232809F49FCC84E456
:102DB0008C9DF0018D9DF00D1124E95BFA4F80810F
:102DC0009181A281B3810196A11DB11D8083918360
:102DD000A283B3838BCC232809F088CC84E48C9D18
:102DE000F0018D9DF00D1124E75FFA4F81E090E036
:102DF00095A784A785E090E0938B828B77CCCF92C8
:102E0000DF92EF92FF920F931F9324E4269FF0012D
:102E1000279FF00D1124E75FFA4F2289338921158E
:102E2000310509F452C06B017C0121303105B1F448
:102E300082A593A59C012F5F3F4F33A722A7092EA0
:102E4000000CAA0BBB0B028D138D248D358D8017C2
:102E50009107A207B307C9F5C7013CDB84E48C9D49
:102E6000F0018D9DF00D1124E75FFA4F828993895F
:102E7000039759F582A593A59C012F5F3F4F33A778
:102E800022A7092E000CAA0BBB0B468D578D60A103
:102E900071A184179507A607B707BCF086AD97AD5B
:102EA00093A782A784E090E0938B828B82AD93AD51
:102EB000A4ADB5AD181619061A061B0634F4EE5B60
:102EC000FF4F81E090E0918380831F910F91FF90ED
:102ED000EF90DF90CF90089524E4269FF001279F84
:102EE000F00D1124E75FFA4F828993890497B1F4BA
:102EF00082A593A5019693A782A7092E000CAA0B81
:102F0000BB0B46895789608D718D84179507A6077D
:102F1000B70721F485E090E0938B828B08952F9280
:102F20003F924F925F926F927F928F929F92AF9259
:102F3000BF92CF92DF92EF92FF920F931F93CF93A6
:102F4000DF93CDB7DEB72E970FB6F894DEBF0FBE76
:102F5000CDBFDC0149835A836B837C83290184E4E0
:102F6000849FF001859FF00D1124E75FFA4F2288BE
:102F70003388C1010497029708F0D5C011961C92BE
:102F80001E9213961C921E92129715861486912CEF
:102F9000812C90E080E08F019F01205F3F4F3887B8
:102FA0002F833F013CE0630E711CBF01625F7F4FC6
:102FB0007A8769873A96FC87EB87EF81F8852081CD
:102FC0003181F30140815181E985FA85A080B1808A
:102FD000841595050CF445C011965C934E93139699
:102FE0003C932E9312971596BC92AE921497452B54
:102FF000F9F4F5E02F163104D9F410929105F80197
:10300000828D938DA48DB58DAE014F5F5F4F64E0CF
:1030100070E08F3F9F4FAF4FBF4F09F079C080E204
:1030200090E0F6D469817A818B819C81A201A7DA34
:103030002E960FB6F894DEBF0FBECDBFDF91CF91B5
:103040001F910F91FF90EF90DF90CF90BF90AF90C6
:103050009F908F907F906F905F904F903F902F90B8
:103060000895EB85FC8560817181FB01E80DF91DF8
:10307000FE87ED8760817181672B89F5E084F1849B
:10308000628173817E836D83668177816A01E3E06B
:10309000CC0CDD1CEA95E1F72C0D3D1D440F551FAE
:1030A0004A0D5B1DFA0191838083F30140815181B8
:1030B0004F5F5F4F51834083F901F382E282ED85D8
:1030C000FE8573876287E616F70670F46E197F092E
:1030D000F90171836083158214821782168201962A
:1030E000FEE08F0E911C69CFED85FE85C480D580F2
:1030F0004D815E814C0D5D1D4E195F09F9015183B3
:1031000040836C197D0975836483D782C682E7CFBB
:103110008FE190E07DD4F80113A612A681E090E043
:10312000938B828B85CF1586148611961C921E92E6
:1031300013961C921E9212977BCFEF92FF920F93E1
:103140001F93CF93DF937C018B01EA013DD5811161
:103150001BC08091CA029091CB020497F9F4DF91D1
:10316000CF911F910F91FF90EF90089528ED38EBCC
:1031700045E050E060E070E0CB01DCD7AE01B80183
:10318000C701E6D7C801AFD780919205909193050A
:10319000892BF9F68881882349F3DBCF83E090E01F
:1031A0009093CB028093CA02DACFCF93DF93209122
:1031B000CA023091CB022430310531F0EB01C8D77F
:1031C000CE01DF91CF918FC7DF91CF9108950C94FD
:1031D000A6240C949B240C94892495C70C942D242C
:1031E000089570E060E090E080E0C9C40895AF9277
:1031F000BF92CF92DF92EF92FF920F931F93CF93E4
:10320000DF931F921F92CDB7DEB75C018B0169017E
:103210007A0190E080E0C114D104E104F10469F482
:103220000F900F90DF91CF911F910F91FF90EF9032
:10323000DF90CF90BF90AF9008959C2D8D2DC1143D
:10324000D10421E0E206F10410F09FEF8FEF9E0120
:103250002F5F3F4F492F582FB801C5010E942F25DE
:103260008F3F9807E9F229813A81C21AD30AE1080F
:10327000F108020F131FCFCF40E855E260E070E085
:1032800090E080E000C08130910579F01CF4892B3A
:1032900039F008958230910561F0039771F0089537
:1032A00026E089EC95E00C94062B26E086E696E075
:1032B000FACF26E083E097E0F6CF26E080EA97E0B9
:1032C000F2CF1F920F920FB60F9211240BB60F92EE
:1032D0002F933F934F935F936F937F938F939F931E
:1032E000AF93BF93EF93FF938EE19BEF90932501F4
:1032F000809324010E946925FF91EF91BF91AF91C6
:103300009F918F917F916F915F914F913F912F91FD
:103310000F900BBE0F900FBE0F901F9018958EE16F
:103320009BEF9093250180932401A3E7B0E08C915B
:103330008E7F8C93E0E2F1E080818C7F8083E1E2FC
:10334000F1E08081877E80838081846080838081BA
:103350008C7F80838C9181608C93089581E00895A7
:103360008F929F92AF92BF92CF92DF92EF92FF9295
:103370000F931F93CF93DF935C017B018A01C1E020
:10338000D0E0CE15DF05CCF081E0F5018083B801F7
:10339000C7010E94D024F5019283818390E080E0F0
:1033A000DF91CF911F910F91FF90EF90DF90CF9021
:1033B000BF90AF909F908F9008956E018FEFC81AC5
:1033C000D80AFE01EE0FFF1FE00FF11F80809180F1
:1033D0008114910469F063EB73E0C4010E94642FCF
:1033E000892B41F4CC0FDD1FC00FD11F1982188229
:1033F000E601C7CF66EB73E0C4010E94642F892BFE
:10340000B9F7EC14FD04A1F36E01E2E0CE0ED11C7D
:10341000CC0FDD1FC00FD11F198218821B821A82A8
:10342000E7CF84E995E0089580E008950F931F9316
:10343000CF93DF938B01BA01E901198218829801B9
:10344000012E000C440B550BFC0181819281CFDED3
:10345000019641F01983088380E0DF91CF911F919D
:103460000F91089581E0F9CF0F931F93CF93DF93CE
:103470001F921F92CDB7DEB7FB018A01B9019E01F1
:103480002F5F3F4FAF01FC01818192810E94E424B4
:10349000019669F089819A81F8019183808380E0A7
:1034A0000F900F90DF91CF911F910F91089581E0C0
:1034B000F7CFFC01808108950895089581E0FB0114
:1034C000808380E0089508951092BC050895FC0162
:1034D000818192810C94C824CF93DF9300D000D0D7
:1034E00000D01F92CDB7DEB7B0E0A0E089839A8309
:1034F000AB83BC83CB01770FAA0BBB0B8D839E8361
:10350000AF83B8879E01275F3F4FAE014F5F5F4F8C
:1035100068E070E08091AB059091AC0587DF811188
:1035200010C081E029853A852830310509F480E012
:103530002A960FB6F894DEBF0FBECDBFDF91CF91B4
:10354000089581E0F5CF0F931F93CF93DF931F92E0
:103550001F92CDB7DEB78B019E012F5F3F4FAC01AD
:103560008091AB059091AC0561DF81110EC081E0C7
:1035700029813A812017310709F480E00F900F90DC
:10358000DF91CF911F910F91089581E0F7CFCF93F5
:10359000DF93EC011092AF051092AE051092BB05BF
:1035A0001092BA05AC0160E070E0CB010E94BF123E
:1035B000AE0161E070E080E090E00E94BF12809177
:1035C000AB059091AC05DF91CF917DCF4F925F928B
:1035D0006F927F928F929F92AF92BF92CF92DF9223
:1035E000EF92FF920F931F93CF93DF931F921F923F
:1035F000CDB7DEB78C017C0197FF03C087E0E80EF2
:10360000F11C23E0F594E7942A95E1F7C80168E0FE
:1036100070E00E94C42D6C010E5F1F4F8091A905C0
:103620009091AA0580179107D4F48091A7059091F5
:10363000A805009731F00E94CB2E1092AA05109297
:10364000A905C8010E942F2E9093A8058093A70575
:10365000892B09F482C01093AA050093A90510E0F4
:1036600000E047C1412C512C3201B12CA12C950115
:1036700020553A4FAE014F5F5F4F61E070E080919F
:10368000AB059091AC05F0DE811149C0EFEF4E1A09
:103690005E0A6E0A7E0AF0E94F16FFE55F06F1E06A
:1036A0006F06710444F06091BA057091BB058DEE10
:1036B00090E012DFD7CF89819A81A80EB91E8AE0E7
:1036C000A816B10409F043C049E050E070E060E0A2
:1036D00080EB95E00E945B256091BA057091BB0577
:1036E000882391F18091B80590E08617970781F4BF
:1036F000BC018EEE90E0F0DE8091BA059091BB05A2
:10370000019699279093BB058093BA050F5F1F4FD1
:103710000E151F050CF4A6CFCD2809F07CC090E053
:1037200080E00F900F90DF91CF911F910F91FF904C
:10373000EF90DF90CF90BF90AF909F908F907F9051
:103740006F905F904F9008958FEE90E0B2CFEAE0D7
:10375000AE16B1040CF48BCFDBCF10E000E0D8CF75
:103760000A30110531F549E050E070E060E080EB8F
:1037700095E00E945B256091BA057091BB05882396
:10378000A9F08091B80590E08617970741F6BC0133
:103790008EEE90E0A1DE8091BA059091BB05019676
:1037A00099279093BB058093BA05B9CF8FEE90E02F
:1037B0002BC00A3011050CF0B2CF980120553A4FBA
:1037C000AE014F5F5F4F61E070E08091AB0590917B
:1037D000AC054ADE8111A3CF89819A81080F191F98
:1037E000FFEFCF1ADF0AEF0AFF0A80E9C8168FE55C
:1037F000D80681E0E806F1040CF4B2CF6091BA0576
:103800007091BB058DEE90E067DE10E000E0C12C0A
:10381000D12C7601D2CFC12CD12C760110E000E062
:10382000CCCF412C512C3201B12CA12C480193E07A
:10383000880C991C9A95E1F72091A7053091A8056D
:10384000C501880D991D280F391FAE014F5F5F4FCD
:1038500061E070E08091AB059091AC0505DE8111CF
:103860005ECFEFEF4E1A5E0A6E0A7E0A6091BA05CD
:103870007091BB058DEE90E0F0E94F16FFE55F0615
:10388000F1E06F0671040CF043C089819A81A80EA3
:10389000B91E8AE0A816B10409F041C049E050E021
:1038A000B4018091A7059091A8050E945B256091C5
:1038B000BA057091BB05882349F18091A7059091C5
:1038C000A805880E991EF401808590E08617970759
:1038D00081F4BC018EEE90E0FFDD8091BA059091FD
:1038E000BB05019699279093BB058093BA050F5F9E
:1038F0001F4F0E151F050CF494CFC114D10409F00D
:1039000081C08091A7059091A8050BCF8FEE90E024
:10391000E3DD412C512C3201B12CA12C8DCFFAE0EA
:10392000AF16B1040CF488CFE4CF8FEE90E0D4DD75
:10393000F12CE12C812C912C5401970120553A4F08
:10394000AE014F5F5F4F61E070E08091AB059091F9
:10395000AC058ADD8111E3CE8FEF881A980AA80A98
:10396000B80A6091BA057091BB058DEE90E0E0E970
:103970008E16EFE59E06E1E0AE06B104C4F689813D
:103980009A81E80EF91EFAE0EF16F104A9F549E074
:1039900050E070E060E080EB95E00E945B25609174
:1039A000BA057091BB05882309F4BFCF8091B80593
:1039B00090E08617970709F0A4CFBC018EEE90E047
:1039C0008BDD83E0000F111F8A95E1F78091A70539
:1039D0009091A805A60160EB75E0800F911F0E94F1
:1039E000542F8091BA059091BB0501969927909329
:1039F000BB058093BA0585CF8AE0E816F1040CF484
:103A00009CCF7FCF812C912C5401F12CE12C95CFB0
:103A1000CF92DF92EF92FF920F931F93CF93DF939A
:103A20001F92CDB7DEB76C017B018A01452B39F0BF
:103A3000AB0170E060E0C8010E9457258983B7019F
:103A4000C6014ADD81110DC00115110551F0B70104
:103A5000C80179DD811105C061E070E0CE010196F9
:103A600072DD0F90DF91CF911F910F91FF90EF903A
:103A7000DF90CF900895CF92DF92EF92FF92CF9395
:103A8000DF9300D000D01F921F92CDB7DEB76B013D
:103A9000F12CE12CC982DA82EB82FC822D833E83F9
:103AA0004F835887AE014F5F5F4F68E070E0B0DF33
:103AB00028960FB6F894DEBF0FBECDBFDF91CF9131
:103AC000FF90EF90DF90CF9008958F929F92AF92EA
:103AD000BF92CF92DF92EF92FF920F931F93CF93FB
:103AE000DF937C01EB01CA01690170DD0097B1F43D
:103AF0002FEF3FEFA90161E070E0C701BCDFC1E03B
:103B00008C2FDF91CF911F910F91FF90EF90DF905D
:103B1000CF90BF90AF909F908F900895FC018190BF
:103B20009190A190B190BF01FCE1EF16F10479F4FE
:103B3000A5019401CE010E942511C82FA501940171
:103B4000882369F061E070E0C70195DFD9CF950166
:103B50008401AB01B601CE010E94280FEECF70E0C8
:103B600060E0C701DF91CF911F910F91FF90EF901F
:103B7000DF90CF90BF90AF909F908F907CCF0F93AE
:103B80001F93CF93DF93EC018B014BDC9093AC053B
:103B90008093AB050097A9F0A801BE01E1DBEC0121
:103BA000892B49F08091AB059091AC0585DC109292
:103BB000AC051092AB05CE01DF91CF911F910F9113
:103BC0000895C2ECD3E0EECF8091AB059091AC05A7
:103BD00070CC2F923F924F925F926F927F928F9212
:103BE0009F92AF92BF92CF92DF92EF92FF920F938C
:103BF0001F93CF93DF93CDB7DEB769970FB6F894D5
:103C0000DEBF0FBECDBF2091AF052223F1F05B8B4D
:103C10004A8B6E877F87888B998B9A01AB01BC0199
:103C2000CE0101967C017BD910E048E0242E312C96
:103C3000E88EF98E89819A81181619060CF450C203
:103C4000112319F08A899B89A2DC69960FB6F89432
:103C5000DEBF0FBECDBFDF91CF911F910F91FF90BF
:103C6000EF90DF90CF90BF90AF909F908F907F901C
:103C70006F905F904F903F902F900895EB81FC8163
:103C80008C859D8533E0880F991F3A95E1F7E80F01
:103C9000F91F808191819093A6058093A5052481C9
:103CA0003581428153815093A4054093A3054681F9
:103CB00057815093A2054093A105820F931F9C0149
:103CC000990F440B550B2C8B3D8B4E8B5F8B812CAE
:103CD000912C54018C899D89AE89BF8988169906DB
:103CE000AA06BB0638F18C859D85880F991FED814A
:103CF000FE81E80FF91F4E855F856889798980818B
:103D000091810E94F112AC85BD851196BD87AC876B
:103D100089819A81EC85FD85E817F9070CF4AECF0F
:103D20002A893B894E855F8568897989888D998D37
:103D3000F6D880CF1F826091A5057091A605CB01B2
:103D4000072E000CAA0BBB0B84017501640134E043
:103D5000C30ED11CE11CF11CC816D906EA06FB06ED
:103D600008F0B3C02091A3053091A405A4014C5FD5
:103D70005F4F240F351FF901C080D12CF12CE12CAD
:103D800024013501F5E04F0E511C611C711C4816D1
:103D900059066A067B0608F0A3C02091A30530915E
:103DA000A405F8013596E20FF31F2081D22A2401E1
:103DB000350126E0420E511C611C711C4816590643
:103DC0006A067B0608F097C02091A3053091A405F0
:103DD000F8013696E20FF31F2081E22A2401350113
:103DE00037E0430E511C611C711C481659066A06C7
:103DF0007B0608F08BC02091A3053091A405F80143
:103E00003796E20FF31F208126013701722A7501D0
:103E1000640148E0C40ED11CE11CF11C8C159D0509
:103E2000AE05BF0508F41DC188169906AA06BB0693
:103E300008F077C08091A3059091A405800F911F91
:103E400068E070E080DBE091A505F091A6059F0198
:103E50000F2E000C440B550BD301C2018C0D9D1D80
:103E6000AE1DBF1D281739074A075B0708F478C045
:103E7000C216D306E406F50608F05DC08091A305DE
:103E80009091A4059801285F3F4F820F931FB201C4
:103E90005ADB8091A5059091A605AC01092E000C76
:103EA000660B770BC416D506E606F70608F04DC07C
:103EB000085F1F4F8091A3059091A405800F911F6B
:103EC000A20170E060E0F3D5A7C044E050E0461BDB
:103ED000570B480D591D2091A1053091A20549CFDE
:103EE000E5E0F0E0E61BF70BE00FF11F2091A105E4
:103EF0003091A20558CFE6E0F0E0E61BF70BE00FAB
:103F0000F11F2091A1053091A20564CFE7E0F0E018
:103F1000E61BF70BE00FF11F2091A1053091A205E0
:103F200070CF9801261B370B8091A1059091A205B7
:103F3000820F931F85CF91012E1B3F0B200F311F46
:103F40008091A1059091A205A0CFD101A81BB90B2A
:103F5000CD01080F191F8091A1059091A205AECF48
:103F6000BF0168507109601B710BC216D306E406CD
:103F7000F50608F062C08091A3059091A405980110
:103F8000285F3F4F820F931FDEDA8091A505909145
:103F9000A605B101681B790B600F711F640D751DBB
:103FA0008091A1059091A205CEDA8091A50590910E
:103FB000A605AC0148505109FA01E01BF10BAC0118
:103FC000092E000C660B770BC416D506E606F7061D
:103FD00008F03DC08091A3059091A4059801285F49
:103FE0003F4F820F931FAF0170E060E060D58F8379
:103FF0002091A5053091A605F101E21BF30B9F016D
:10400000200F311F240D351D50E040E0682F8091B6
:10401000A1059091A20537D58F8361E070E0CE01B4
:10402000079691DA182F38E0430E511C611C711C61
:10403000840C951CA61CB71C4DCE91012E1B3F0B6A
:10404000200F311F8091A1059091A2059BCF910176
:10405000281B390B200F311F8091A1059091A205DB
:10406000C0CF88169906AA06BB0668F5601B710BBF
:104070008091A3059091A405800F911F64DA80912F
:10408000A5059091A605B101681B790B600F711F02
:10409000640D751D8091A1059091A20554DA80915F
:1040A000A5059091A605AC01092E000C660B770BB7
:1040B000C416D506E606F70608F4FACE9101281BC9
:1040C000390BC90146CFC801861B970B2091A1056A
:1040D0003091A205B201685F7F4F820F931FDECF40
:1040E0001D861C8615CECF93DF93EC01AC0160E0FA
:1040F00070E0CB016EDDAE0161E070E080E090E049
:10410000DF91CF9166CDCF938091AB059091AC05B7
:104110008BD9C82F81110BC060E070E0CB010E94E9
:10412000EA0D61E070E080E090E00E94EA0D8C2FE3
:10413000CF9108950F931F9389019A01AB01BC01A0
:104140008091AB059091AC05B8D91F910F9108955E
:104150004F925F926F927F928F929F92AF92BF9297
:10416000CF92DF92EF92FF920F931F93CF93DF9343
:10417000CDB7DEB763970FB6F894DEBF0FBECDBFE5
:104180006C018B015A018091AF05882309F43DC071
:104190008091AF05882309F442C08091AE051A8250
:1041A0001982882309F4C0C0F0E94F2EFFE55F2E85
:1041B00066246394712CF12CE12C970129563A4F17
:1041C000AE014F5F5F4F61E070E08091AB05909171
:1041D000AC054AD9982E811169C089819A81E80E6F
:1041E000F91EE114F10409F461C081E0481A510894
:1041F0006108710859F56091BA057091BB058DEEA3
:1042000090E06AD91A82198251C06FEA75E08091F4
:10421000AB059091AC0552D9882309F4B9CF6396C8
:104220000FB6F894DEBF0FBECDBFDF91CF911F91C7
:104230000F91FF90EF90DF90CF90BF90AF909F9045
:104240008F907F906F905F904F900895AAE0EA164C
:10425000F10409F063C049E050E070E060E087E9F4
:1042600095E029D46091BA057091BB05882309F4C3
:1042700052C080919F0590E08617970719F6BC0100
:104280008EEE90E029D988E0E7E9F5E0DE011996A5
:1042900001900D928A95E1F78091BA059091BB0546
:1042A000019699279093BB058093BA0581E02981F7
:1042B0003A81121613060CF080E09110CAC28823CE
:1042C00009F4ADCF8091AE05811104C019861A861C
:1042D0001B861C8689859A85AB85BC8580319105B6
:1042E000A105B10508F09BCFFC018827E558FE4DDC
:1042F0008F4F0C94F92DFB21BA2329240F21FF2283
:104300003223EB21F321CF210E24FD230A240F2198
:104310000F210F21BA218FEE90E073CFBAE0EB1698
:10432000F1040CF44ACFC2CFF12CE12CE8E06E2E60
:10433000712C29E030E02C0F3D1F2E0D3F1DAE01EA
:104340004F5F5F4FB3016E197F098091AB0590916C
:10435000AC058AD8982E29813A81811109C0E20ED4
:10436000F31EE114F10421F0E8E0EE16F1040CF381
:1043700081E09FCFD6011696ED91FC9180819181CD
:10438000A281B38189839A83AB83BC83AE014F5FE3
:104390005F4F64E070E085E190E03ADB40CF8D85CF
:1043A0009E8514D92FEF3FEFA90161E070E00097DF
:1043B00071F0FC01C080D180E280F380A801C701C8
:1043C000B6010E946A12A701960170E060E08DE1DB
:1043D00090E051DB24CF4D855E859801B6018BE1DD
:1043E00090E073DB1CCF4D855E852FEF3FEFB6016C
:1043F0008CE190E0F6CFD6011496ED91FC9100810E
:104400001181F80182809380A080B18070E1472EF5
:10441000512C612C712C49825A826B827C8288E0FB
:1044200090E0A0E0B0E08D839E83AF83B8879E01CB
:104430002F5E3F4FAE014F5F5F4F68E070E08091AD
:10444000AB059091AC050E94161A8823D9F010E0B4
:1044500000E0C80163960FB6F894DEBF0FBECDBF73
:10446000DF91CF911F910F91FF90EF90DF90CF9050
:10447000BF90AF909F908F907F906F905F904F9084
:104480000C94CB2E89899A89089709F7D801ED9069
:10449000FC90B8E0EB0EF11CEE0CFF1CEE0CFF1CC8
:1044A000C7010E942F2E8C01892B89F249825A82E2
:1044B0006B827C82C7010F2C000CAA0BBB0B8D8377
:1044C0009E83AF83B8879E012F5E3F4FAE014F5F43
:1044D0005F4F68E070E08091AB059091AC050E9461
:1044E000161A8111B6CF89899A89089709F0B1CF38
:1044F000D6011296ED91FC914081518162817381C8
:10450000D8014D935D936D937C93139744815581AE
:104510006681778114964D935D936D937C93179785
:10452000408551856285738518964D935D936D9393
:104530007C931B9784859585A685B785F80184872C
:104540009587A687B787108A118A128A138A84E012
:1045500090E0A0E0B0E0848B958BA68BB78B809128
:10456000CA029091CB02B0E0A0E0808F918FA28F21
:10457000B38FC5010B2C000CAA0BBB0B848F958F3E
:10458000A68FB78FF401D801909690E080E08A154D
:104590009B055CF19E012F5E3F4FA801B701809102
:1045A000AB059091AC050E94161A811152CF8989F2
:1045B0009A89E816F90609F04CCFA70170E060E08F
:1045C000C80175D28B8B9E012F5E3F4FAE014D5EB1
:1045D0005F4F61E070E08091AB059091AC050E9467
:1045E000161A81E08093AE0534CF4191519170E06D
:1045F00060E04D935D936D937D930196C8CF8D855B
:104600009E85AF85B8890097A105B10521F481E0A9
:104610008093AD0504CE0E94E61A009781F481E0F4
:1046200090E0A0E0B0E089839A83AB83BC83AE01C5
:104630004F5F5F4F64E070E082E190E0AECEBC017E
:10464000C6010E94440D19821A821B821C82AE018F
:104650004F5F5F4F64E070E082E190E0D9D988233A
:10466000B1F2DDCDD6011496ED91FC910190F0816F
:10467000E02DE084F1848FEF8983E114F10409F4E3
:1046800072C0D7016D907C90C280D38070E060E0F2
:1046900090E080E08615970594F083E190E00E9419
:1046A0006C1A10E000E08111BACD061517055CF117
:1046B00061E070E0CE0101960E94A31AB0CD9C018A
:1046C00043E0220F331F4A95E1F7F701A281B3813E
:1046D000A20FB31F1296ED91FC911397EE0FFF1FDF
:1046E000EC0DFD1D0190F081E02D16964D915C9131
:1046F000E49F9001E59F300DF49F300D1124620F6F
:10470000731F0196C7CFD7011296ED91FC91C80196
:1047100023E0880F991F2A95E1F7E80FF91FA08081
:10472000B180A281B381AA0FBB1FAC0DBD1D2D911D
:104730003C9186819781289F4001299F900C389F4A
:10474000900C1124B401C5010E94A31A582E9401A3
:1047500050E040E06981C50196D1898351105FCD59
:104760000F5F1F4FA2CF70E060E083E190E00E94F6
:104770006C1A55CD50E040E070E060E081E190E0DF
:1047800047D981114CCD60E070E0CB010E940F0F42
:1047900080919105882329F0A80160E070E0CB01A9
:1047A00018DAA80160E070E0CB010E94160E61E00B
:1047B00070E080E090E00E940F0F809191058823C7
:1047C00031F0A80161E070E080E090E002DAA80139
:1047D00061E070E080E090E00E94160E1092AF055C
:1047E0001092AE051092BB051092BA058091AB05F0
:1047F0009091AC050E94641A12CD81E090E09093F4
:1048000093058093920550E040E070E060E086E11F
:1048100090E0C3CD81E0F501808301CD8D859E853B
:104820000E94E61A2FEF3FEFA90161E070E00097C8
:1048300069F0DC01CD90DD90ED90FC90C701B601F0
:104840000E94CA12A701960170E060E08EE190E03C
:10485000C0CDC8010E94C71AE2CCCF92DF92EF927E
:10486000FF92CF93DF93EC01C12CD12C7601C701CD
:10487000B6010E940F0FAE01C701B601AAD9AE0161
:10488000C701B6010E94160E8091A7059091A80558
:10489000009731F00E94CB2E1092A8051092A70528
:1048A000CA94CD28CE28CF2879F58091AE05F12C79
:1048B000882351F050E040E070E060E084E190E057
:1048C000A7D8F82E1092AE058091AF05882341F04D
:1048D0001092AF0581E090E09093CB028093CA02E2
:1048E0008091AB059091AC050E94671A8091AB0551
:1048F0009091AC050E945C1A8F2DDF91CF91FF90B3
:10490000EF90DF90CF900895C12CD12C7601C39405
:10491000AECFCF93DF93EC01AC0160E070E0CB0150
:104920000E94FF16AE0161E070E080E090E0DF9150
:10493000CF910C94FF1660E070E0CB010E946C17E1
:1049400061E070E080E090E00C946C17CF92DF9211
:10495000EF92FF920F931F93CF93DF93EC016A01C5
:104960007B0100E010E098010E941A1301E010E0C2
:1049700020E030E0B701A601CE010E941A13DF91BA
:10498000CF911F910F91FF90EF90DF90CF900895FE
:1049900068EE73E080E090E044D490E080E0089519
:1049A00026E040E050E16EE070E089EC95E02ED624
:1049B00089EC95E061D5892B21F089EC95E076D5DD
:1049C000F7CF90E080E00895CF92DF92EF92FF92D0
:1049D0000F931F93CF93DF936B017A01E901198243
:1049E000188289EC95E048D5892B71F18601CC2499
:1049F000C39485E6D82E8091BC05811111C089EC45
:104A000095E054D585369105B1F7C092BC05F80103
:104A1000D1928F0188819981019699838883EBCF08
:104A2000888199818E159F0578F489EC95E03ED5B3
:104A30008F3F9807A9F3F80181938F0188819981AD
:104A4000019699838883ECCF90E080E0DF91CF914D
:104A50001F910F91FF90EF90DF90CF9008950F93EB
:104A60001F93CF93DF93EA01890189EC95E00E94BF
:104A7000962DF801D183C08390E080E0DF91CF9143
:104A80001F910F910895DC01A40FB51F420F531F12
:104A90009D01281B390B2417350710F0862F089528
:104AA000ED91E627F0E0EE5EFE4F6491F1CF9A01C2
:104AB000AB016FEFE8CFCF93FC01E60FF71FE40FD8
:104AC000F51FC081F4DF91E0C81390E0892FCF91EA
:104AD00008958091BD0591E0980F9093BD058823BE
:104AE00049F021E030E03093BF052093BE0580936C
:104AF000BD05089578940E944A08F8948091BD05F8
:104B000081508093BD050C94E918DF92EF92FF92DB
:104B10000F931F93CF93DF931F92CDB7DEB7109201
:104B2000440910924309B3D30E943C190091050334
:104B300010910603F8011182108270E060E090E0AD
:104B400080E00E94F1180E947A0A7894C801895581
:104B50009F4F0E94F01882E090E00E94ED181982A9
:104B6000AE014F5F5F4F62E070E0F8018281938198
:104B70000E949D188981882329F081E0F801E3557E
:104B8000FF4F80830E94F618F8940E948F19F80155
:104B900080819181892B29F481E0E355FF4F908139
:104BA000911180E080934309789478947801FDEA2C
:104BB000EF0EF11CDD24D39480914309811112C0C2
:104BC0000E94710B82E090E00E94EE18F89490E051
:104BD00080E00F90DF91CF911F910F91FF90EF90A8
:104BE000DF9008951982AE014F5F5F4F62E070E081
:104BF000F801828193810E94D5188981882311F060
:104C0000F701D082F80180819181892B91F481E0B4
:104C1000F7019081911101C080E080934409909147
:104C2000440981E0911180E0809343090E94AE190C
:104C3000C3CF81E0F2CF5058BB27AA270ED0C9C1FD
:104C4000BAD130F0BFD120F031F49F3F11F41EF4FF
:104C50008AC10EF4E095E7FB80C1E92FCBD180F348
:104C6000BA17620773078407950718F071F49EF569
:104C7000E3C10EF4E0950B2EBA2FA02D0B01B90164
:104C800090010C01CA01A0011124FF27591B99F0C2
:104C9000593F50F4503E68F11A16F040A22F232FCE
:104CA000342F4427585FF3CF469537952795A7951E
:104CB000F0405395C9F77EF41F16BA0B620B730BC5
:104CC000840BBAF09150A1F0FF0FBB1F661F771F36
:104CD000881FC2F70EC0BA0F621F731F841F48F4EB
:104CE000879577956795B795F7959E3F08F0B3CF71
:104CF0009395880F08F09927EE0F9795879508955B
:104D00005AD158F080E891E009F49EEF5BD128F089
:104D100040E851E059F45EEF09C025C18DC1E92F8B
:104D2000E07868D168F3092E052AC1F32617370702
:104D30004807590738F00E2E07F8E02569F0E025FE
:104D4000E0640AC0EF6307F8009407FADB01B901D9
:104D50009D01DC01CA01AD01EF9345D03AD10AD0E3
:104D60005F91552331F02BED3FE049E450FD49ECD4
:104D700063CF0895DF93DD27B92FBF7740E85FE366
:104D80001616170648075B0710F4D92F60D19F93BA
:104D90008F937F936F93C5D1E4EEF0E0E7D019D104
:104DA0002F913F914F915F9165D1DD2349F090584C
:104DB000A2EA2AED3FE049EC5FE3D0785D274DDFC2
:104DC000DF9107C1A6D008F481E00895FBD040F040
:104DD000F2D030F021F45F3F19F0BFC051112DC166
:104DE000C2C008D198F39923C9F35523B1F3951B99
:104DF000550BBB27AA2762177307840738F09F5FFC
:104E00005F4F220F331F441FAA1FA9F333D00E2E6A
:104E10003AF0E0E830D091505040E695001CCAF7D7
:104E200029D0FE2F27D0660F771F881FBB1F26179C
:104E300037074807AB07B0E809F0BB0B802DBF016F
:104E4000FF2793585F4F2AF09E3F510568F085C0B9
:104E5000F4C05F3FECF3983EDCF386957795679559
:104E6000B795F7959F5FC9F7880F911D9695879520
:104E700097F90895E1E0660F771F881FBB1F62173F
:104E800073078407BA0720F0621B730B840BBA0BFD
:104E9000EE1F88F7E0950895E89409C097FB3EF46B
:104EA00090958095709561957F4F8F4F9F4F992377
:104EB000A9F0F92F96E9BB279395F69587957795F5
:104EC0006795B795F111F8CFFAF4BB0F11F460FFB5
:104ED0001BC06F5F7F4F8F4F9F4F16C0882311F00D
:104EE00096E911C0772321F09EE8872F762F05C021
:104EF000662371F096E8862F70E060E02AF09A95BC
:104F0000660F771F881FDAF7880F9695879597F9B0
:104F10000895990F0008550FAA0BE0E8FEEF16164A
:104F20001706E807F907C0F012161306E407F5079D
:104F300098F0621B730B840B950B39F40A2661F011
:104F4000232B242B252B21F408950A2609F4A140B4
:104F5000A6958FEF811D811D089597F99F6780E8C1
:104F600070E060E008959FEF80EC0895DF93CF93A9
:104F70001F930F93FF92EF92DF927B018C01689455
:104F800005C0DA2EEF0176D0FE01E894A5912591B7
:104F9000359145915591AEF3EF015FDEFE0197012A
:104FA000A801DA9479F7DF90EF90FF900F911F91AD
:104FB000CF91DF91089500240A941616170618065B
:104FC0000906089500240A9412161306140605060D
:104FD0000895092E0394000C11F4882352F0BB0F9E
:104FE00040F4BF2B11F460FF04C06F5F7F4F8F4F01
:104FF0009F4F089557FD9058440F551F59F05F3F3C
:1050000071F04795880F97FB991F61F09F3F79F0EA
:1050100087950895121613061406551FF2CF46956C
:10502000F1DF08C0161617061806991FF1CF8695EE
:105030007105610508940895E894BB2766277727D2
:10504000CB0197F9089565DF08F48FEF08959B0170
:10505000AC0160E070E080E89FE366C00BD0B9CFA0
:10506000AADF28F0AFDF18F0952309F076CF7BCFC9
:105070001124E3CFBFDFA0F3959FD1F3950F50E04C
:10508000551F629FF001729FBB27F00DB11D639FFA
:10509000AA27F00DB11DAA1F649F6627B00DA11DA0
:1050A000661F829F2227B00DA11D621F739FB00D46
:1050B000A11D621F839FA00D611D221F749F3327B6
:1050C000A00D611D231F849F600D211D822F762F4F
:1050D0006A2F11249F5750408AF0E1F088234AF04C
:1050E000EE0FFF1FBB1F661F771F881F9150504098
:1050F000A9F79E3F510570F030CF9FCF5F3FECF393
:10510000983EDCF3869577956795B795F795E79583
:105110009F5FC1F7FE2B880F911D9695879597F994
:1051200008959B01AC019ACF5CDE53CF1F920F9282
:105130000FB60F9211242F933F938F939F93AF93AA
:10514000BF938091C1059091C205A091C305B09114
:10515000C4053091C00523E0230F2D3758F5019683
:10516000A11DB11D2093C0058093C1059093C20578
:10517000A093C305B093C4058091C5059091C60561
:10518000A091C705B091C8050196A11DB11D8093DE
:10519000C5059093C605A093C705B093C805BF91F8
:1051A000AF919F918F913F912F910F900FBE0F90D4
:1051B0001F90189526E8230F0296A11DB11DD2CF8E
:1051C0002FB7F8946091C1057091C2058091C30515
:1051D0009091C4052FBF08953FB7F8948091C505FD
:1051E0009091C605A091C705B091C80526B5A89BAA
:1051F00005C02F3F19F00196A11DB11D3FBFBA2F69
:10520000A92F982F8827BC01CD01620F711D811D28
:10521000911D42E0660F771F881F991F4A95D1F7AD
:1052200008958F929F92AF92BF92CF92DF92EF92AA
:10523000FF926B017C01D0DF4B015C01C114D104F2
:10524000E104F104D9F09FD4C7DF681979098A090C
:105250009B09683E73408105910580F321E0C21AE5
:10526000D108E108F10888EE880E83E0981EA11CA1
:10527000B11CC114D104E104F10431F7FF90EF90A7
:10528000DF90CF90BF90AF909F908F9008957894CB
:1052900084B5826084BD84B5816084BD85B582603B
:1052A00085BD85B5816085BDEEE6F0E080818160D9
:1052B0008083E1E8F0E010828081826080838081D9
:1052C00081608083E0E8F0E0808181608083E1EBB1
:1052D000F0E0808184608083E0EBF0E08081816099
:1052E0008083E1E9F0E08081826080838081816059
:1052F0008083E0E9F0E0808181608083E1EAF0E092
:10530000808182608083808181608083E0EAF0E038
:10531000808181608083E1E2F1E08081826080832E
:10532000808181608083E0E2F1E080818160808320
:10533000EAE7F0E0808184608083808182608083FE
:105340008081816080838081806880831092C10029
:1053500008958150823108F059C0E82FF0E0882785
:10536000EC54F64D8F4F45C4D429D829C629CC29F1
:10537000D029062ADB29E129E529EB29EF29F329A0
:10538000F929FD29062A012A072A0B2A8091800083
:105390008F77809380000895809180008F7DF9CF72
:1053A00080918000877FF5CF84B58F7784BD089585
:1053B00084B58F7DFBCF8091B0008F778093B00054
:1053C00008958091B0008F7DF9CF809190008F7704
:1053D000809390000895809190008F7DF9CF809107
:1053E0009000877FF5CF8091A0008F778093A000F9
:1053F00008958091A0008F7DF9CF8091A000877FD4
:10540000F5CF809120018F778093200108958091BE
:1054100020018F7DF9CF80912001877FF5CF1F93E9
:10542000CF93DF93282F30E0F901EE5EFD4F84919A
:10543000F901E85AFD4FD491F901E256FD4FC491AC
:10544000CC23A1F0162F811184DFEC2FF0E0EE0FBA
:10545000FF1FEC51FD4FA591B4918FB7F894EC91DB
:10546000111108C0D095DE23DC938FBFDF91CF915F
:105470001F910895DE2BF8CFFC01918D228D892F8D
:1054800090E0805C9F4F821B91098F73992708954C
:10549000FC01918D828D981731F0828DE80FF11DFE
:1054A000858D90E008958FEF9FEF0895FC01918D19
:1054B000828D981761F0A28DAE0FBF2FB11D5D9642
:1054C0008C91928D9F5F9F73928F90E008958FEFE4
:1054D0009FEF0895FC01538D448D252F30E0842FDC
:1054E00090E0821B930B541710F0CF96089501970C
:1054F0000895FC01A48DA80FB92FB11DA35ABF4F69
:105500002C91848D90E001968F739927848FA689C2
:10551000B7892C93A089B1898C91837080648C9316
:10552000938D848D981306C00288F389E02D8081C5
:105530008F7D80830895CF93DF93EC01888D88233E
:10554000B1F0AA89BB89E889F9898C9185FD03C0EE
:10555000808186FD0CC00FB607FCF7CF8C9185FFCC
:10556000F2CF808185FFEDCFCE01C3DFEACFDF919F
:10557000CF910895EF92FF920F931F93CF93DF93F4
:10558000EC0181E0888F9B8D8C8D98131AC0E8897F
:10559000F989808185FF15C09FB7F894EE89FF894E
:1055A0006083E889F98980818370806480839FBFEC
:1055B00081E090E0DF91CF911F910F91FF90EF90EC
:1055C0000895F62E0B8D10E00F5F1F4F0F731127FC
:1055D000E02E8C8D8E110BC00FB607FCFACFE88938
:1055E000F989808185FFF5CFCE0183DFF2CFEB8D86
:1055F000EC0FFD2FF11DE35AFF4FF0829FB7F89497
:105600000B8FEA89FB8980818062D0CFCF92DF92B5
:10561000EF92FF921F93CF93DF93EC016A017B011E
:10562000122FE889F98982E08083C11481EED806BF
:10563000E104F10499F060E079E08DE390E0A701E6
:105640009601B5D221503109410951095695479526
:1056500037952795211580E1380790F0E889F98979
:10566000108260E874E88EE190E0A70196019FD275
:10567000215031094109510956954795379527958C
:10568000EC85FD853083EE85FF852083188EEC89BF
:10569000FD891083EA89FB89808180618083EA89A2
:1056A000FB89808188608083EA89FB8980818068AA
:1056B0008083EA89FB8980818F7D8083DF91CF9110
:1056C0001F91FF90EF90DF90CF9008951F920F925F
:1056D0000FB60F9211240BB60F922F938F939F93B7
:1056E000EF93FF93E091D905F091DA058081E09185
:1056F000DF05F091E00582FD1DC090818091E205FB
:105700008F5F8F732091E305821741F0E091E205EE
:10571000F0E0E753FA4F958F8093E205FF91EF9108
:105720009F918F912F910F900BBE0F900FBE0F90F6
:105730001F9018958081F2CF1F920F920FB60F9293
:1057400011240BB60F922F933F934F935F936F9358
:105750007F938F939F93AF93BF93EF93FF9389ECC6
:1057600095E0C7DEFF91EF91BF91AF919F918F912F
:105770007F916F915F914F913F912F910F900BBE51
:105780000F900FBE0F901F901895E9ECF5E0138273
:10579000128288EE93E0A0E0B0E084839583A68334
:1057A000B78381E094E09183808385EC90E09587D6
:1057B000848784EC90E09787868780EC90E0918BDB
:1057C000808B81EC90E0938B828B82EC90E0958BC8
:1057D000848B86EC90E0978B868B118E128E138EC5
:1057E000148E08951F920F920FB60F9211240BB6CC
:1057F0000F922F938F939F93EF93FF93E0917606F1
:10580000F09177068081E0917C06F0917D0682FD23
:105810001DC0908180917F068F5F8F7320918006DD
:10582000821741F0E0917F06F0E0EA59F94F958F39
:1058300080937F06FF91EF919F918F912F910F9011
:105840000BBE0F900FBE0F901F9018958081F2CF66
:105850001F920F920FB60F9211240BB60F922F9337
:105860003F934F935F936F937F938F939F93AF93E8
:10587000BF93EF93FF9386E696E03BDEFF91EF91B7
:10588000BF91AF919F918F917F916F915F914F9158
:105890003F912F910F900BBE0F900FBE0F901F9056
:1058A0001895E6E6F6E01382128288EE93E0A0E017
:1058B000B0E084839583A683B78381E094E09183ED
:1058C00080838DEC90E0958784878CEC90E09787BF
:1058D000868788EC90E0918B808B89EC90E0938BAD
:1058E000828B8AEC90E0958B848B8EEC90E0978B8A
:1058F000868B118E128E138E148E08951F920F9226
:105900000FB60F9211240BB60F922F938F939F9384
:10591000EF93FF93E0911307F09114078081E091DA
:105920001907F0911A0782FD1DC0908180911C0714
:105930008F5F8F7320911D07821741F0E0911C0744
:10594000F0E0ED5FF84F958F80931C07FF91EF918A
:105950009F918F912F910F900BBE0F900FBE0F90C4
:105960001F9018958081F2CF1F920F920FB60F9261
:1059700011240BB60F922F933F934F935F936F9326
:105980007F938F939F93AF93BF93EF93FF9383E0A6
:1059900097E0AFDDFF91EF91BF91AF919F918F9114
:1059A0007F916F915F914F913F912F910F900BBE1F
:1059B0000F900FBE0F901F901895E3E0F7E0138251
:1059C000128288EE93E0A0E0B0E084839583A68302
:1059D000B78381E094E09183808385ED90E09587A3
:1059E000848784ED90E09787868780ED90E0918BA7
:1059F000808B81ED90E0938B828B82ED90E0958B94
:105A0000848B86ED90E0978B868B118E128E138E91
:105A1000148E08951F920F920FB60F9211240BB699
:105A20000F922F938F939F93EF93FF93E091B00783
:105A3000F091B1078081E091B607F091B70782FD40
:105A40001DC090818091B9078F5F8F732091BA0735
:105A5000821741F0E091B907F0E0E056F84F958FDA
:105A60008093B907FF91EF919F918F912F910F90A4
:105A70000BBE0F900FBE0F901F9018958081F2CF34
:105A80001F920F920FB60F9211240BB60F922F9305
:105A90003F934F935F936F937F938F939F93AF93B6
:105AA000BF93EF93FF9380EA97E023DDFF91EF919F
:105AB000BF91AF919F918F917F916F915F914F9126
:105AC0003F912F910F900BBE0F900FBE0F901F9024
:105AD0001895E0EAF7E01382128288EE93E0A0E0E6
